:08000000803102288731FD2F39
:100F16007108F5007008F4000800693045018D007D
:100F26008F019101053093009201080087319027C7
:100F360087318731D02787318731A327873108004A
:100F460041010C100B140030F0000030F100873125
:100F56008B27873108008731992787318B178B13A9
:100F66000B170B13FF30F3000130F2007208F30782
:100F76003D307306031DC02FC12FB72F031040014C
:100F86001A1D03140318C82FCB2F40011A15CD2F95
:100F960040011A11B72F80310228400198019901AA
:100FA6009A0137309200F0309300FB3094003730CE
:100FB6007D018C00F0309600FB30A0008D0197017A
:100FC600A1018E019801A20137308F00F0309900FF
:100FD600FB30A3003F309000F0309A00FB30A400B5
:100FE6009101920193019B019C019D01A501A6011E
:0C0FF600A701080040018731AE2FFF3436
:020000040001F9
:0A000E008F3FFF3F9F3FFF3FFF3F82
:00000001FF
